{
  "contractName": "TodoList",
  "abi": [
    {
      "constant": true,
      "inputs": [
        {
          "name": "",
          "type": "uint256"
        }
      ],
      "name": "tasks",
      "outputs": [
        {
          "name": "id",
          "type": "uint256"
        },
        {
          "name": "content",
          "type": "string"
        },
        {
          "name": "isDeleted",
          "type": "bool"
        }
      ],
      "payable": false,
      "stateMutability": "view",
      "type": "function"
    },
    {
      "constant": true,
      "inputs": [],
      "name": "taskCount",
      "outputs": [
        {
          "name": "",
          "type": "uint256"
        }
      ],
      "payable": false,
      "stateMutability": "view",
      "type": "function"
    },
    {
      "inputs": [],
      "payable": false,
      "stateMutability": "nonpayable",
      "type": "constructor"
    },
    {
      "anonymous": false,
      "inputs": [
        {
          "indexed": false,
          "name": "id",
          "type": "uint256"
        },
        {
          "indexed": false,
          "name": "content",
          "type": "string"
        },
        {
          "indexed": false,
          "name": "isDeleted",
          "type": "bool"
        }
      ],
      "name": "TaskCreated",
      "type": "event"
    },
    {
      "anonymous": false,
      "inputs": [
        {
          "indexed": false,
          "name": "id",
          "type": "uint256"
        },
        {
          "indexed": false,
          "name": "isDeleted",
          "type": "bool"
        }
      ],
      "name": "TaskDeleted",
      "type": "event"
    },
    {
      "constant": false,
      "inputs": [
        {
          "name": "_content",
          "type": "string"
        }
      ],
      "name": "createTask",
      "outputs": [],
      "payable": false,
      "stateMutability": "nonpayable",
      "type": "function"
    },
    {
      "constant": false,
      "inputs": [
        {
          "name": "_id",
          "type": "uint256"
        }
      ],
      "name": "deleteTask",
      "outputs": [],
      "payable": false,
      "stateMutability": "nonpayable",
      "type": "function"
    }
  ],
  "bytecode": "0x60806040526000805534801561001457600080fd5b50610089606060405190810160405280603081526020017f48692066726f6d204e6f6e204e6f6e74726120455448206e6574776f726b207581526020017f73696e6720536f6c6964697479203a290000000000000000000000000000000081525061008e640100000000026401000000009004565b61024d565b60008054600190810180835560408051606081018252828152602080820187815282840187905293865284815291909420845181559151805192936100db939085019291909101906101b2565b5060408201518160020160006101000a81548160ff0219169083151502179055509050507f05d0fb833127fc08168556d0e7ca9554fc3f6bc843b3b7d2bf1c35aea6bab660600054826000604051808481526020018060200183151515158152602001828103825284818151815260200191508051906020019080838360005b8381101561017357818101518382015260200161015b565b50505050905090810190601f1680156101a05780820380516001836020036101000a031916815260200191505b5094505050505060405180910390a150565b828054600181600116156101000203166002900490600052602060002090601f016020900481019282601f106101f357805160ff1916838001178555610220565b82800160010185558215610220579182015b82811115610220578251825591602001919060010190610205565b5061022c929150610230565b5090565b61024a91905b8082111561022c5760008155600101610236565b90565b6106448061025c6000396000f3fe6080604052600436106100615763ffffffff7c0100000000000000000000000000000000000000000000000000000000600035041663111002aa8114610066578063560f31921461011b5780638d97767214610145578063b6cb58a5146101f9575b600080fd5b34801561007257600080fd5b506101196004803603602081101561008957600080fd5b8101906020810181356401000000008111156100a457600080fd5b8201836020820111156100b657600080fd5b803590602001918460018302840111640100000000831117156100d857600080fd5b91908080601f016020809104026020016040519081016040528093929190818152602001838380828437600092019190915250929550610220945050505050565b005b34801561012757600080fd5b506101196004803603602081101561013e57600080fd5b5035610344565b34801561015157600080fd5b5061016f6004803603602081101561016857600080fd5b50356104a4565b604051808481526020018060200183151515158152602001828103825284818151815260200191508051906020019080838360005b838110156101bc5781810151838201526020016101a4565b50505050905090810190601f1680156101e95780820380516001836020036101000a031916815260200191505b5094505050505060405180910390f35b34801561020557600080fd5b5061020e610553565b60408051918252519081900360200190f35b600080546001908101808355604080516060810182528281526020808201878152828401879052938652848152919094208451815591518051929361026d93908501929190910190610559565b5060408201518160020160006101000a81548160ff0219169083151502179055509050507f05d0fb833127fc08168556d0e7ca9554fc3f6bc843b3b7d2bf1c35aea6bab660600054826000604051808481526020018060200183151515158152602001828103825284818151815260200191508051906020019080838360005b838110156103055781810151838201526020016102ed565b50505050905090810190601f1680156103325780820380516001836020036101000a031916815260200191505b5094505050505060405180910390a150565b61034c6105d7565b60008281526001602081815260409283902083516060810185528154815281840180548651600296821615610100026000190190911695909504601f810185900485028601850190965285855290949193858401939092908301828280156103f55780601f106103ca576101008083540402835291602001916103f5565b820191906000526020600020905b8154815290600101906020018083116103d857829003601f168201915b50505091835250506002919091015460ff1615156020918201526040808301805115905260008581526001808452919020835181558383015180519495508594919361044693850192910190610559565b50604091820151600291909101805460ff1916911515919091179055818101518151848152901515602082015281517f572597a6891de3ffc5ddb25adeb4871a3bf451676410ca50eed9524c49bdc0e6929181900390910190a15050565b600160208181526000928352604092839020805481840180548651600296821615610100026000190190911695909504601f810185900485028601850190965285855290949193929091908301828280156105405780601f1061051557610100808354040283529160200191610540565b820191906000526020600020905b81548152906001019060200180831161052357829003601f168201915b5050506002909301549192505060ff1683565b60005481565b828054600181600116156101000203166002900490600052602060002090601f016020900481019282601f1061059a57805160ff19168380011785556105c7565b828001600101855582156105c7579182015b828111156105c75782518255916020019190600101906105ac565b506105d39291506105fb565b5090565b60606040519081016040528060008152602001606081526020016000151581525090565b61061591905b808211156105d35760008155600101610601565b9056fea165627a7a7230582038ab3ad4f4b1fab121c11ae75eb043fbcb6806beb5a5c57cb37e25aa9c1e59700029",
  "source": "pragma solidity ^0.5.0;\n\ncontract TodoList {\n    uint256 public taskCount = 0;\n\n    struct Task {\n        uint256 id;\n        string content;\n        bool isDeleted;\n    }\n\n    mapping(uint256 => Task) public tasks;\n\n    event TaskCreated(uint256 id, string content, bool isDeleted);\n\n\n    event TaskDeleted(uint256 id, bool isDeleted);\n\n    constructor() public {\n        createTask(\"Hi from Non Nontra ETH network using Solidity :)\");\n    }\n\n    function createTask(string memory _content) public {\n        taskCount++;\n        tasks[taskCount] = Task(taskCount, _content, false);\n        emit TaskCreated(taskCount, _content, false);\n    }\n\n    function deleteTask(uint256 _id) public {\n        Task memory _task = tasks[_id];\n        _task.isDeleted = !_task.isDeleted;\n        tasks[_id] = _task;\n        emit TaskDeleted(_id, _task.isDeleted);\n    }\n}\n",
  "sourcePath": "/Users/nonnontra/Desktop/Programming/On-Working/eth-todo-list/contracts/TodoList.sol",
  "compiler": {
    "name": "solc",
    "version": "0.5.0+commit.1d4f565a.Emscripten.clang"
  },
  "schemaVersion": "3.4.0",
  "updatedAt": "2021-05-01T18:32:43.827Z",
  "networkType": "ethereum",
  "devdoc": {
    "methods": {}
  },
  "userdoc": {
    "methods": {}
  }
}